:020000040800F2
:100000001023002039180008B9080008BB080008B0
:10001000BF080008C3080008C70800080000000067
:10002000000000000000000000000000CB080008F5
:10003000CD08000800000000CF080008D108000823
:1000400053180008531800085318000853180008E4
:1000500053180008531800085318000853180008D4
:1000600053180008531800085318000853180008C4
:1000700053180008531800085318000853180008B4
:1000800053180008531800085318000853180008A4
:100090005318000853180008531800085318000894
:1000A0005318000853180008531800085318000884
:1000B00053180008250300085318000853180008B7
:1000C0005318000853180008531800085318000864
:1000D0005318000853180008531800085318000854
:1000E0005318000853180008531800085318000844
:1000F0005318000853180008531800085318000834
:100100005318000853180008531800085318000823
:100110005318000853180008531800085318000813
:100120005318000853180008531800085318000803
:1001300000F002F800F05FF80AA090E8000C82449A
:100140008344AAF10107DA4501D100F054F8AFF277
:10015000090EBAE80F0013F0010F18BFFB1A43F0A5
:10016000010318470C5100002C5100000A444FF0C5
:10017000000C10F8013B13F0070408BF10F8014B06
:100180001D1108BF10F8015B641E05D010F8016B4B
:10019000641E01F8016BF9D113F0080F1EBF10F8AF
:1001A000014BAD1C0C1B09D16D1E58BF01F801CBD2
:1001B000FAD505E014F8016B01F8016B6D1EF9D555
:1001C0009142D6D37047000000230024002500266A
:1001D000103A28BF78C1FBD8520728BF30C148BFAA
:1001E0000B607047642903F0B782002070471FB589
:1001F0001FBD10B510BD03F019FC1146FFF7F7FF46
:1002000000F0A8F803F037FC03B4FFF7F2FF03BCDB
:1002100000F000F8014600BF704700BFFE4A128898
:1002200002F04002002AF9D0C2B2FB4B1B1D1A801B
:10023000704710B586B00446012144F2040001F075
:1002400037FE4FF40070ADF8140003208DF816004F
:1002500018208DF8170005A9F04801F06DFB4FF448
:100260008060ADF8140004208DF8170005A9EB4854
:1002700001F062FB25208DF8000003208DF80100BD
:100280008DF8020001208DF80300684602F07DF829
:1002900001940020ADF80800ADF80A00ADF80C009C
:1002A000ADF810000C20ADF80E0001A9DA4801F0FD
:1002B000A6FE012240F22551D74801F038FF012166
:1002C000D54801F028FF06B010BD1FB5012102205E
:1002D00001F0FBFD1D208DF80C0000208DF80D00B5
:1002E00002208DF80E0001208DF80F0003A802F007
:1002F0004CF86420ADF804004720ADF80000002061
:10030000ADF80600ADF802006946C54802F0A2FB50
:1003100001221146C24802F014FF0121C04802F038
:10032000F5FE1FBD4FF6FE70BD4910310880BD4877
:10033000006842F21071884205DABA480068401C31
:10034000B849086005E00020B64908600120B649B8
:10035000086070470EB500BF002400F0ABFB01F051
:1003600001FA4FF4A06002F00BF802E0C82001F09F
:1003700036FA01F0D2F90028F8D100F0EFFB00F0D6
:100380006BFC01F050F84FF41650FFF752FF0020BD
:1003900000F0EFFC002000F0FAFC00F02AFD00F075
:1003A0004BFD102317220021084600F028FF1023E0
:1003B00018220021122000F022FF10231922002110
:1003C000242000F01CFF10231A220021362000F008
:1003D00016FF10231B220021482000F010FF1023DD
:1003E0001C2200215A2000F00AFF10231D220021A8
:1003F0006C2000F004FFFFF768FF30E28B480068D4
:1004000078B900BF894800680028FBD0601CC4B2DE
:10041000042C00DD0024102385A22821002000F0F8
:1004200088FE82480838006840B900BF7F48083815
:1004300000680028FAD00120824908707B48001F1C
:10044000006840B900BF7948001F00680028FAD052
:1004500001207D490870052C7ED2DFE804F00318E6
:100460005EA6DB007948007879490978CDE900106B
:10047000784803787848027878A17E4803F030F90C
:1004800010237C4A2821002000F053FE50E1102365
:100490001E222821002000F0B2FE10231F22282156
:1004A000122000F0ACFE102317222821242000F097
:1004B000A6FE102319222821362000F0A0FE1023CA
:1004C0006DA22821482000F034FE5E48007858B123
:1004D00000205C4908705F480078332804DA5D48E2
:1004E0000078401C5B4908705748007858B10020DC
:1004F0005549087057480078002804DD55480078B1
:10050000401E54490870102003230090514802787F
:100510002821522000F039FE0AE110231E22282152
:10052000002000F06CFE102320222821122000F071
:1005300066FE102317222821242000F060FE1023DD
:1005400019222821362000F05AFE10234AA2282121
:10055000482000F0EEFD00E0E9E03A48007858B1AC
:100560000020384908703C480078332804DA3A48BB
:100570000078401C384908703348007858B1002092
:100580003149087034480078002804DD324800788A
:10059000401E314908701020032300902E48027835
:1005A0002821522000F0F1FDC2E010231E22282154
:1005B000002000F024FE10231F222821122000F02A
:1005C0001EFE102318222821242000F018FE1023DC
:1005D00019222821362000F012FE102326A22821FD
:1005E000482000F0A6FD1748007858B100201549B2
:1005F000087016480078652804DA14480078401C12
:10060000124908701048007828B100200E4908707F
:100610000E4833E044E039E0003801400008014072
:10062000000400402C0000202400002038812142DA
:1006300020202020202020202020202020202020BA
:1006400000000000220000202300002021000020E4
:10065000200000201F0000201E000020543A2530FA
:1006600032642D2530326420483A253032642D25FD
:10067000303264001C1800203A0000000078002886
:1006800004DD77480078401E754908701020032368
:100690000090734802782821522000F076FD47E050
:1006A00010231E222821002000F0A9FD1023202263
:1006B0002821122000F0A3FD102318222821242035
:1006C00000F09DFD102319222821362000F097FD0F
:1006D0001023AFF25C022821482000F02AFD614877
:1006E000007858B100205F4908705F48007865289D
:1006F00004DA5D480078401C5B4908705B4800786C
:1007000058B100205949087057480078002804DD86
:1007100055480078401E544908701020032300906B
:10072000514802782821522000F02FFD00E000BF40
:1007300000BF4F494F4800F0C4FF4E4800784E4973
:100740000978884203DD00204C49086002E001205E
:100750004A4908604748007849490978884203DADD
:1007600001204849086002E0002046490860002056
:10077000454908703E4800783B490978884211DBBA
:100780003B4800783649097888420BDC39480078C4
:100790003B490978884205DB3648007836490978B4
:1007A000884202DD0120384908703748007858B186
:1007B00000203249091D08603448D0F89401C04334
:1007C0002E49091F086006E001202C49091F086016
:1007D0002E49C1F89C0110232DA21421002000F005
:1007E000A8FC102003230090224802781421084618
:1007F00000F0CBFC102327A21421322000F099FC3A
:10080000102325A21421482000F093FC102003237C
:1008100000901748027814215A2000F0B6FC1023EB
:100820001EA21421782000F084FC00F0E2FA1C489B
:100830000068A0B100201A490860094800780A49F8
:1008400009780D4A1278CDE9002102900C4803780E
:10085000074802780748017812A002F035FFCDE57D
:100860002100002022000020200000202300002082
:1008700015000020140000201F0000209881214254
:100880001E0000209C0121422800002000802142FF
:10089000543A000043000000483A000025000000E0
:1008A0002400002025642C25642C25642C25642C30
:1008B00025642C25640D0A00704700BFFEE700BFC9
:1008C000FEE700BFFEE700BFFEE7704770477047D6
:1008D000704700000CB50020019000906C48006843
:1008E00040F480306A49086000BF6948006800F43D
:1008F000003000900198401C0190009818B90198B0
:10090000B0F5A06FF1D16248006800F4003010B17A
:100910000120009001E0002000900098012843D1C0
:100920005C48006840F010005A49086008460068BA
:1009300020F0030008600846006840F002000860EC
:100940005348406852494860084640684860084635
:10095000406840F4806048600846406820F47C109D
:1009600048600846406840F4E8104860084600685F
:1009700040F08070086000BF4548006800F00070DB
:100980000028F9D04248406820F003004049486000
:100990000846406840F00200486000BF3C4840689C
:1009A00000F00C000828F9D10CBD10B5FFF792FF3C
:1009B00010BD10B53648006840F0010034490860A9
:1009C0000846406834490840314948600846006894
:1009D000324908402E4908600846006820F480200B
:1009E00008600846406820F4FE0048604FF41F008D
:1009F0008860FFF7DAFF4FF000602949086010BDFA
:100A000010B5002100200022214B5B6803F00C018F
:100A100021B1042906D0082928D107E0214B224C16
:100A2000236027E01F4B204C236023E0184B5B68BA
:100A300003F47010164B5B6803F48032022303EB5F
:100A4000904022B9194B4343174C23600DE0104BE3
:100A50005B6803F4003323B1144B4343124C23600F
:100A600003E0104B4343104C236003E00D4B0E4C4E
:100A7000236000BF00BF064B5B68C3F303130C4C3D
:100A8000E15C094B1B68CB40074C236010BD0000A4
:100A900000100240002002400000FFF8FFFFF6FEB9
:100AA00008ED00E000127A003000002000093D004F
:100AB0003400002008B501211D2001F0F9F90121C1
:100AC000234801F00AF82020ADF8000010208DF82E
:100AD000030003208DF8020069461E4800F02CFF39
:100AE00020211C4800F0D5FF4020ADF80000102068
:100AF0008DF8030003208DF802006946154800F0C8
:100B00001BFF4021134800F0C4FF8020ADF8000017
:100B100010208DF8030003208DF8020069460D486F
:100B200000F00AFF80210B4800F0B3FF8020ADF8F1
:100B3000000010208DF8030003208DF802006946A4
:100B4000054800F0F9FE0121034800F0A4FF08BDAC
:100B500000023000000C01400008014000B587B0E1
:100B600001214FF4027001F0A3F94FF4004001F0AD
:100B700003F90220ADF8040000208DF8070001A958
:100B8000334800F0D9FE0120ADF8040000208DF8B4
:100B9000070001A92E4800F0CFFE2E4801F05EFCB0
:100BA000002002908DF80C008DF80D004FF46020AD
:100BB00004900020059001208DF8180002A9254816
:100BC00001F073FC0121234801F09BFC214801F056
:100BD000BAFC00BF1F4801F0BBFC0028FAD11D4839
:100BE00001F0C0FC00BF1B4801F0C1FC0028FAD195
:100BF00007B000BD10B50446072301222146154861
:100C000001F0EBFC0121134801F0BBFC00BF022105
:100C1000104801F027FE0028F9D00E4801F044FDED
:100C200010BD2DE9F04107460C460025002608E0DE
:100C30003846FFF7DFFF0544052000F0D0FD701CAB
:100C4000C6B2A642F4DBB5FBF4F080B2BDE8F08199
:100C5000000C01400024014008B50121082001F0EA
:100C600027F94FF4E040ADF8000048208DF803006C
:100C700003208DF802006946014800F05DFE08BDC2
:100C8000000C014010B54FF48071F94800F001FFED
:100C90004FF40071F64800F0FEFE4FF40071F44886
:100CA00000F0F7FE10BD10B54FF48071F04800F071
:100CB000F0FE4FF48071EE4800F0EDFE10BD70B50F
:100CC0000446002520E04FF48071E94800F0E3FE7F
:100CD00004F0800028B14FF40071E54800F0D9FE1F
:100CE00004E04FF40071E24800F0D5FE4FF480714B
:100CF000DF4800F0CEFE4FF48071DD4800F0CBFEFF
:100D00006006040E681CC5B2082DDCDB70BD10B592
:100D10004FF40071D64800F0BCFE4FF48071D44807
:100D200000F0B7FE4FF40071D14800F0B4FE4FF46C
:100D30008071CF4800F0AFFE10BD70B505460C467F
:100D4000FFF7E5FF7820FFF7BAFFFFF7ACFF1CB114
:100D50004020FFF7B4FF02E00020FFF7B0FFFFF7ED
:100D6000A2FF2846FFF7ABFFFFF79DFFFFF78AFFC3
:100D700070BD10B504461CB90021A620FFF7DDFFA9
:100D8000012C03D10021A720FFF7D7FF10BD10B51C
:100D900004463CB90021C820FFF7CFFF0021A12065
:100DA000FFF7CBFF012C07D10021C020FFF7C5FFC3
:100DB0000021A020FFF7C1FF10BD10B500218D203C
:100DC000FFF7BBFF00211420FFF7B7FF0021AF2082
:100DD000FFF7B3FF10BD10B500218D20FFF7ADFF69
:100DE00000211020FFF7A9FF0021AF20FFF7A5FF8A
:100DF00010BD70B500241CE004F1B001C8B20021A0
:100E0000FFF79BFF00210846FFF797FF0021102006
:100E1000FFF793FF002508E0964901EBC501085D47
:100E20000121FFF78AFF681CC5B2802DF4DB601C2E
:100E3000C4B2082CE0DB70BD70B500240CE00025C6
:100E400006E000208B4901EBC5010855681CC5B2BE
:100E5000802DF6DB601CC4B2082CF0DBFFF7C9FF65
:100E600070BD70B50A46CE1701EB5676C6F3C703C0
:100E7000CE1701EB5676F610A1EBC606F4B20122AE
:100E8000A240D5B27B4A02EBC002D25C2A43794E23
:100E900006EBC006F25470BD70B50B46CE1701EBE1
:100EA0005676C6F3C702CE1701EB5676F610A1EBC5
:100EB000C606F4B20123A340DDB26E4B03EBC003C0
:100EC0009B5CDB436B4E06EBC006B354694B03EBF4
:100ED000C0039B5C2B43674E06EBC006B354654BC7
:100EE00003EBC0039B5CDB43624E06EBC006B354CE
:100EF00070BD2DE9F84F05460E4617469846002D61
:100F00000ADB802F08DC002E06DBB8F1400F03DC83
:100F1000BD4201DC464501DDBDE8F88FBD420DD183
:100F2000002406E03019C1B22846FFF79AFF601C82
:100F3000C4B2A8EB0600A042F4DC30E046450CD178
:100F4000002406E02919C8B23146FFF78AFF601C69
:100F5000C4B2781BA042F5DC21E0A8EB060000F04B
:100F6000FF0A781B00F0FF0B0AEB8A00400090FBA1
:100F7000FBF000F0FF0900240EE004FB09F00A2159
:100F800090FBF1F03044C0B229190090C8B200992A
:100F9000FFF767FF601CC4B2781BA042EDDC00BF06
:100FA000BAE72DE9F04306460F4690460025444631
:100FB0003BE03A1BD1B27219D0B2FFF752FF3A1B95
:100FC000D1B2721BD0B2FFF74CFF3A19D1B2721BEB
:100FD000D0B2FFF746FF3A19D1B27219D0B2FFF77B
:100FE00040FF7A19D1B23219D0B2FFF73AFF7A1B1B
:100FF000D1B23219D0B2FFF734FF7A1BD1B2321B13
:10100000D0B2FFF72EFF7A19D1B2321BD0B2FFF760
:1010100028FF6D1C05FB05F004FB040008FB180904
:10102000B9F1000F01DD641E6D1E6000604308FB16
:1010300008F18842BDDABDE8F0832DE9FF4F81B0A9
:1010400080460E461C4600962046E31704EB537379
:10105000DB1021464FEAE47C04EB5C7C4FEAEC0CAD
:10106000A4EBCC0CBCF1000F06D04FF0010C05E056
:10107000000C01402C1800204FF0000C6344224665
:1010800004EBD27C4FEA6C0C03FB0CF303F0FF0B78
:1010900003982038C7B2002547E00C2C07D107EB96
:1010A0004700FE4901EB800010F805A014E0102C69
:1010B00005D1FB4800EB071010F805A00CE0182C38
:1010C00007D107EBC700F74901EB800010F805A036
:1010D00002E005B0BDE8F08F4FF000091FE00AF014
:1010E000800020B131464046FFF7BBFE03E03146A9
:1010F0004046FFF7D1FE4FEA4A604FEA106A701C83
:10110000C6B20098301AA04205D1009E08F1010035
:1011100000F0FF0806E009F1010000F0FF09B9F155
:10112000080FDCDB00BF681CC5B25D45B5DB00BF46
:10113000CFE7F0B506460F4614461D4613E0227869
:101140002B4639463046FFF778FF284605EBD0712D
:1011500006EB6101CEB2C5F18000B04202DA002692
:10116000B81CC7B2641C2078202802DB20787E28B7
:10117000E5DDF0BD10B50246012000E050430B1E36
:10118000A1F10104E1B2F9D110BD2DE9F04F0646FD
:101190008A4691461F46099C00252CE0781B401E7C
:1011A000C1B20A20FFF7E6FFB9FBF0F00A21B0FB5D
:1011B000F1F201FB1208B8F1000F0CD1A34604EBC9
:1011C000DB71491001FB0561C8B22346302251464C
:1011D000FFF733FF0DE0A34604EBDB71491001FB81
:1011E0000561C8B208F13001CAB223465146FFF783
:1011F00024FF681CC5B2BD42D0DBBDE8F08F2DE9ED
:10120000FF4F0746884691461C464FF0000B029759
:10121000CDF804802046E11704EB5171C1F3C701FA
:10122000009160E009FB04F0C11700EB51710BEB7A
:10123000E101CEB20BF1010000F0FF0B002550E000
:10124000102C05D1984800EB0610405D03901BE080
:10125000182C07D106EBC600944901EBC000405D95
:10126000039011E0202C05D1914800EBC610405DA1
:10127000039009E0402C05D18E4800EB4620405DEC
:10128000039001E0BDE8FF8F4FF0000A17E00398DC
:1012900000F0010020B141463846FFF7E2FD03E0CF
:1012A00041463846FFF7F8FD03984010039008F1D7
:1012B000010000F0FF080AF1010000F0FF0ABAF196
:1012C000080FE4DB781CC7B20298381AA04204D198
:1012D000029F01980830C0B20190DDF80480681CBC
:1012E000C5B2A542ACDB0098411EC9B200910028EE
:1012F00098D100BFC6E7804689460026002749E00E
:101300003FB91023324618218020FFF778FF701C68
:10131000C6B2464522D14FF0000A1AE0002410E080
:1013200000250AE0644800EBC400415D601E624A8B
:1013300002EBC0004155681CC5B2082DF2DB601CF1
:10134000C4B2902CECDBFFF754FD0AF1010000F071
:10135000FF0A4FEA09105045E0DC0026781CC7B2AE
:10136000102F00D10027002410E000250AE0524889
:1013700000EBC400415D601E4F4A02EBC0004155C6
:10138000681CC5B2082DF2DB601CC4B2902CECDBEB
:10139000FFF72FFDB4E770B504460D4605F1B00127
:1013A000C8B20021FFF7C9FC102141EA1410002146
:1013B000FFF7C3FC04F00F0141F001000021FFF72B
:1013C000BCFC70BD2DE9F05F05460E4617469846F9
:1013D000DDF828B04FF00009CA460024E11704EBFD
:1013E0005171C910A4EBC10101B901E0601CC4B284
:1013F000344614E021462846FFF7CDFFAA460AE00E
:101400001BF809000121FFF798FC09F101090AF115
:10141000010000F0FF0ABA45F2DB601CC4B244458B
:10142000E8DBBDE8F09F08B50121042000F040FD95
:101430009820ADF8000010208DF8030003208DF8EF
:10144000020069461D4800F077FAB0211B4800F001
:1014500020FB0121082000F02BFD40F20130ADF807
:10146000000010208DF8030003208DF8020069466B
:10147000134800F061FA40F20131114800F009FB15
:1014800001210F4800F005FB642000F0A8F90121BC
:101490000B4800F000FBC82014E000009E3A000852
:1014A000123F0008024500084400002064040020A8
:1014B0003C0500203C0700202C18002000080140BB
:1014C000000C014000F08BF901213D4800F0E1FAE9
:1014D00002213B4800F0DFFA0021AE20FFF72DFC8F
:1014E00000210846FFF729FC00211020FFF725FC0A
:1014F00000214020FFF721FC00218120FFF71DFC87
:101500000021CF20FFF719FC0021A120FFF715FCD7
:101510000021C820FFF711FC0021A620FFF70DFCD9
:101520000021A820FFF709FC00213F20FFF705FC60
:101530000021D320FFF701FC00210846FFF7FDFB47
:101540000021D520FFF7F9FB00218020FFF7F5FBF4
:101550000021D920FFF7F1FB0021F120FFF7EDFB7F
:101560000021DA20FFF7E9FB00211220FFF7E5FB5D
:101570000021DB20FFF7E1FB00214020FFF7DDFB2E
:1015800000212020FFF7D9FB00210220FFF7D5FB27
:1015900000218D20FFF7D1FB00211420FFF7CDFBA8
:1015A0000021A420FFF7C9FB0021A620FFF7C5FBFF
:1015B0000021AF20FFF7C1FBFFF73EFC08BD000094
:1015C000000C014010B56348406863490840614918
:1015D00048600846406840F03000486000205F499D
:1015E0000860142000F0FBF801205D49C1F8B80143
:1015F0001E2000F0D0F810BD10B5002455484068FA
:1016000055490840534948600846406840F080000A
:10161000486004E0601CC4B2012000F0BCF84F48F0
:101620008038006808B1642CF4DB642C01DB0120F5
:1016300010BD002404E0601CC4B2012000F0ABF82F
:1016400046488038006808B9642CF4DB642C01DB60
:101650000120EDE70020EBE710B5002404E0601C5A
:10166000C4B2012000F097F83C488038006808B107
:10167000642CF4DB002404E0601CC4B2012000F000
:101680008AF836488038006808B9642CF4DB2820D2
:1016900000F081F831488038006808B1012010BDA1
:1016A0000020FCE770B50024002506E06006040E6B
:1016B000FFF7D2FF0443681CC5B2082DF6DB2046B5
:1016C00070BD7CB505460E46FFF77CFFFFF794FF23
:1016D000F8B9002405E0FFF7E5FF0DF80400601CF1
:1016E000C4B2052CF7DB9DF800009DF801100844FA
:1016F0009DF8021008449DF8031008449DF804105A
:10170000884208D19DF8000030709DF802002870D2
:1017100001E001207CBD0020FCE708B5012110207C
:1017200000F0C6FB4FF48040ADF8000010208DF8AB
:10173000030003208DF802006946064800F0FCF81B
:101740004FF48041034800F0A4F9FFF73BFFFFF797
:1017500053FF08BD00100140FFFF0F0FB8012242E8
:101760000000224210B56FF0040000F058FE2E4831
:1017700000682E49B0FBF1F02D490870084600784A
:1017800000EB4001C1EBC0104FF6FF7101EAC00051
:101790002849088010BD0146254A12784A434FF077
:1017A000E0235A6100229A611A46126942F001024E
:1017B0001A6100BF4FF0E022106900F001021AB177
:1017C00000F48032002AF5D04FF0E022126922F0B6
:1017D00001024FF0E0231A6100229A61704701462E
:1017E000144A12884A434FF0E0235A6100229A615A
:1017F0001A46126942F001021A6100BF4FF0E0225E
:10180000106900F001021AB100F48032002AF5D00C
:101810004FF0E022126922F001024FF0E0231A613A
:1018200000229A61704700003000002000127A0008
:101830003C1700203E170020094880470948004710
:10184000FEE7FEE7FEE7FEE7FEE7FEE7FEE7FEE770
:10185000FEE7FEE704480549054A064B70470000CD
:10186000B309000831010008101D002010230020DA
:10187000101F0020101F002010B50446CC488442E1
:1018800008D10121042000F02DFB0021042000F0EC
:1018900029FB46E0C748844208D10121082000F016
:1018A00021FB0021082000F01DFB3AE0C2488442E1
:1018B00008D10121102000F015FB0021102000F0BC
:1018C00011FB2EE0BD48844208D10121202000F008
:1018D00009FB0021202000F005FB22E0B8488442EB
:1018E00008D10121402000F0FDFA0021402000F045
:1018F000F9FA16E0B348844208D10121802000F0B3
:10190000F1FA0021802000F0EDFA0AE0AE488442AE
:1019100007D10121801500F0E5FA0021A01500F0A3
:10192000E1FA10BD10B50121084600F0DBFA0021F4
:10193000012000F0D7FA10BD2DE9F0410246002544
:101940000026002000230024002791F803C00CF09B
:101950000F0591F803C00CF0100CBCF1000F03D080
:1019600091F802C04CEA050591F800C0BCF1000FE7
:1019700031D0146800202BE04FF0010C0CFA00F37A
:10198000B1F800C00CEA03069E4220D183004FF05C
:101990000F0C0CFA03F7BC4305FA03FC4CEA0404F1
:1019A00091F803C0BCF1280F06D14FF0010C0CFADE
:1019B00000FCC2F814C00AE091F803C0BCF1480F63
:1019C00005D14FF0010C0CFA00FCC2F810C0401C0D
:1019D0000828D1D31460B1F800C0BCF1FF0F34DD8A
:1019E000546800202EE000F1080C4FF0010808FABE
:1019F0000CF3B1F800C00CEA03069E4221D183002B
:101A00004FF00F0C0CFA03F7BC4305FA03FC4CEA49
:101A1000040491F803C0BCF1280F05D100F1080CB3
:101A200008FA0CF8C2F8148091F803C0BCF1480F12
:101A300007D100F1080C4FF0010808FA0CF8C2F8C1
:101A40001080401C0828CED35460BDE8F0814FF6CA
:101A5000FF710180022181700421C170704702462C
:101A6000002093680B400BB1012000E0002070477C
:101A70000146886880B2704702460020D3680B4058
:101A80000BB1012000E0002070470146C86880B219
:101A9000704701617047416170470AB1016100E020
:101AA00041617047C16070474FF480320A438261E0
:101AB0008161826182698269704702460020434BDE
:101AC00018684FF68073184040EA021008433F4BF5
:101AD000186070473E49C8617047F0B50A46002358
:101AE00000240021002500F00046B6F1004F02D18D
:101AF000364EF16901E0354E7168C0F3034583B29B
:101B000000F44016B6F5401F08D121F070612F4E49
:101B1000766826F070662D4F7E6012E000F4801625
:101B2000B6F5801F06D1032606FA05F4A14341F05D
:101B3000706106E0460D360103FA06F6B14341F046
:101B4000706122B1460D360103FA06F6314300F00A
:101B50000046B6F1004F02D11C4EF16101E01B4E70
:101B60007160F0BD30B500228B071C0F0F2303FA04
:101B700004F2164B08338C1053F824309343134C63
:101B800008348D1044F8253023468C1053F8243047
:101B90008C07240F00FA04F423430C4C08348D10F6
:101BA00044F8253030BD0A49DC3108607047000038
:101BB00000080140000C01400010014000140140E9
:101BC00000180140001C01400020014000000140BD
:101BD00000002042DF48006840F00100DD49086055
:101BE00008464068DC490840DA4948600846006811
:101BF000DA490840D74908600846006820F4802088
:101C000008600846406820F4FE0048604FF41F005A
:101C100088607047CF49096821F48031CD4A11604E
:101C20001146096821F480211160B0F5803F03D08E
:101C3000B0F5802F0ED106E0C649096841F4803125
:101C4000C44A116007E0C349096841F4A021C14AB0
:101C5000116000E000BF00BF704710B501460022D0
:101C6000002300204A11012A02D1BA4C236806E061
:101C7000022A02D1B74C236A01E0B64C636A01F034
:101C80001F02012494401C400CB1012000E0002000
:101C900010BD38B5002000900024002500BF312081
:101CA000FFF7DBFF05460098401C00900098B0F558
:101CB000A06F01D0002DF2D03120FFF7CEFF08B188
:101CC000012400E00024204638BD01460020A14A3E
:101CD000106820F0F80040EAC10010607047A04989
:101CE00008607047024600209A4B586820F47C1028
:101CF00042EA01031843974B5860704798490866B9
:101D0000704701460020934A506820F003000843C2
:101D1000506070478F48406800F00C0070470146E3
:101D200000208C4A506820F0F00008435060704753
:101D300001460020874A506820F4E0600843506064
:101D4000704701460020834A506820F4605040EA02
:101D5000C1005060704729B17E4A527A02437D4BE0
:101D60005A7204E07B4A527A82437A4B5A72704725
:101D70007B49D8310860704701460020754A506899
:101D800020F440400843506070470021714A2032DF
:101D90001170704A82F82010012802D004280AD15C
:101DA00004E001216B4A2032117005E00521694AE7
:101DB0002032117000E000BF00BF70476949086021
:101DC00070476449096A0143624A11627047654974
:101DD00044390860704730B50021002200240023F8
:101DE0005C4D6D6805F00C0121B1042905D008296E
:101DF00023D105E05C4D056022E05B4D05601FE0EE
:101E0000544D6D6805F47012524D6D6805F48034C0
:101E1000022505EB92421CB9544D554305600BE079
:101E20004C4D6D6805F400351DB1504D55430560AE
:101E300002E04D4D5543056002E04B4D056000BF8B
:101E400000BF444D6D6805F0F0010909484D6B5C19
:101E50000568DD4045603F4D6D6805F4E061090AA5
:101E6000434D6B5C4568DD4085603A4D6D6805F417
:101E70006051C90A3E4D6B5C4568DD40C560354D1B
:101E80006D6805F44041890B3A4D6B5CC568B5FB44
:101E9000F3F5056130BD29B12E4A526902432D4B3D
:101EA0005A6104E02B4A526982432A4B5A617047B7
:101EB00029B1284A92690243264B9A6104E0254AD7
:101EC00092698243234B9A61704729B1214AD269B2
:101ED0000243204BDA6104E01E4AD26982431D4B63
:101EE000DA61704729B11B4AD2680243194BDA60A4
:101EF00004E0184AD2688243164BDA60704729B171
:101F0000144A12690243134B1A6104E0114A126920
:101F10008243104B1A61704712494039086070477C
:101F20000F49C86470470B49C87170470948406A37
:101F300040F0807007494862704701460020054A1A
:101F400092680A400AB1012000E000207047014970
:101F500088727047001002400000FFF8FFFFF6FE95
:101F6000000042428004424200127A0000093D0013
:101F7000401700205017002010B50446FB4884424B
:101F800009D101218803FFF7ADFF00214FF4804004
:101F9000FFF7A8FF32E0F648844209D10121480446
:101FA000FFF7ADFF00214FF40030FFF7A8FF25E059
:101FB000F048844209D101218804FFF7A0FF0021E5
:101FC0004FF48020FFF79BFF18E0EB48844209D1D3
:101FD0000121C804FFF793FF00214FF40020FFF711
:101FE0008EFF0BE0E548844208D101210805FFF788
:101FF00086FF00214FF48010FFF781FF10BD2DE90F
:10200000F04786B005460E460024A24600BFA14612
:102010000027B08900B100BF2F462C8A4CF6FF7014
:102020000440F08804432C82AC894EF6F31004403F
:10203000B08831890843718908430443AC81AC8A74
:102040004FF6FF400440B0890443AC8201A8FFF77B
:10205000C2FEC648874202D1DDF810A001E0DDF8DB
:102060000CA0A88900F4004040B10AEBCA0000EBC4
:102070000A1031684900B0FBF1F807E00AEBCA002A
:1020800000EB0A1031688900B0FBF1F86420B8FB5E
:10209000F0F004012009642101FB1089A88900F4F3
:1020A000004040B1322000EBC900B0FBF1F000F07D
:1020B0000700044308E0322000EB09106421B0FB64
:1020C000F1F000F00F0004432C8106B0BDE8F0876A
:1020D0004FF41651016000218180C18001810C21E3
:1020E000418100218181704710B502460020108A8D
:1020F0004FF2FF0318400B884C8823438C882343FE
:10210000CC8823431843108210BD002101804180F8
:102110008180C180704721B1828942F4005282815E
:1021200004E082894DF6FF731A4082817047F0B552
:102130000346002400260025002040F66A17B94215
:1021400000D100BF1846C1F3421401F01F06012759
:1021500007FA06F5012C01D10C3004E0022C01D164
:10216000103000E014301AB107682F43076002E016
:102170000768AF430760F0BD1AB1838A0B438382BF
:1021800002E0838A8B4383827047028A4FF6F073A2
:102190001A400282028A0A430282704782894FF201
:1021A000FF731A40828182890A438281704721B17C
:1021B000828942F00202828104E082894FF6FD7337
:1021C0001A4082817047028A4FF6DF731A400282FA
:1021D000028A0A430282704721B1028A42F4804295
:1021E000028204E0028A4BF6FF731A4002827047B3
:1021F000C1F308028280704701468888C0F3080056
:102200007047818941F0010181817047028BD2B210
:102210000283028B42EA012202837047028B02F49E
:102220007F420283028B0A430283704721B1828A74
:1022300042F02002828204E0828A4FF6DF731A4065
:102240008282704721B1828A42F01002828204E0C9
:10225000828A4FF6EF731A408282704721B1828AD8
:1022600042F00802828204E0828A4FF6F7731A4035
:102270008282704721B1828942F40042828103E068
:102280008289C2F30E028281704721B1828A42F4B0
:102290000062828204E0828A4FF2FF731A408282D7
:1022A0007047828A4FF6FB731A408282828A0A4301
:1022B0008282704721B1828A42F00202828204E067
:1022C000828A4FF6FD731A408282704702460020D0
:1022D000B1F5007F00D100BF13880B400BB1012086
:1022E00000E00020704701F40072B2F5007F00D1D9
:1022F00000BFCA430280704770B502460024002325
:102300000025002040F66A16B14200D100BFC1F39B
:10231000421501F01F03012606FA03F3012D02D135
:102320009689334006E0022D02D1168A334001E03F
:10233000968A33400C12012606FA04F416883440BB
:1023400013B10CB1012000E0002070BD10B50022D7
:10235000002340F66A14A14200D100BF0A120124F2
:102360009440A3B2DC43048010BD0000003801405B
:102370000044004000480040004C00400050004035
:1023800031490143314A1160704770B50021002383
:102390000F22C47804B32D4C246804F4E064C4F51F
:1023A000E064210AC1F10403CA40447804FA03F14D
:1023B0008478144021430901254C0678A1550478FE
:1023C00004F01F050124AC4005786D11AD0005F146
:1023D000E025C5F8004109E0047804F01F05012458
:1023E000AC401C4D0678761145F8264070BD1A4A5F
:1023F0000A400243154B1B1F1A60704739B1134A3C
:10240000121D12680243114B1B1D1A6006E00F4A91
:10241000121D126882430D4B1B1D1A607047042861
:1024200008D14FF0E021096941F004014FF0E022AA
:10243000116107E04FF0E021096921F004014FF03C
:10244000E0221161704700000000FA050CED00E089
:1024500000E400E080E100E080FFFF1F10B50446CB
:10246000FA48844208D101214015FFF73BFD0021C5
:102470006015FFF737FD17E0F548844208D10121C8
:102480000015FFF72FFD00212015FFF72BFD0BE0B6
:10249000F048844208D10121C803FFF723FD002141
:1024A0004FF40040FFF71EFD10BD30B5024600207E
:1024B00000235068E84C20400D790C6844EA05245C
:1024C000204350609068E54C2040D1E902542C43F1
:1024D0004D7944EA450420439060D06A20F47000AE
:1024E0000C7C641EE4B2234340EA0350D06230BD4A
:1024F00000210160017141718160C160012101749D
:10250000704721B1826842F00102826003E0826874
:1025100022F001028260704721B1826842F4807229
:10252000826003E0826822F480728260704710B596
:102530000023CBB21AB144681C43446002E04468F3
:102540009C43446010BD816841F008018160704780
:10255000014600208A6802F008020AB1012000E06A
:1025600000207047816841F0040181607047014696
:1025700000208A6802F004020AB1012000E0002075
:10258000704721B1826842F4A002826003E0826851
:1025900022F4A00282607047014600208A6802F49B
:1025A00080020AB1012000E00020704710B50A4601
:1025B00000210023416821F46041531E41EA433168
:1025C000416010BD21B1426842F40062426003E004
:1025D000426822F4006242607047F0B504460D463E
:1025E00000200021092D11DDE068A5F10A0606EBA7
:1025F0004607072606FA07F18843A5F10A0606EB07
:10260000460603FA06F10843E0600CE0206905EB9A
:102610004507072606FA07F1884305EB450603FA46
:1026200006F108432061072A0FDA606B561E06EB9D
:1026300086071F2606FA07F18843561E06EB860614
:1026400005FA06F10843606322E00D2A0FDA206BD9
:10265000D61F06EB86071F2606FA07F18843D61F0A
:1026600006EB860605FA06F10843206310E0E06AEF
:10267000A2F10D0606EB86071F2606FA07F188432E
:10268000A2F10D0606EB860605FA06F10843E062A4
:10269000F0BD21B1826842F48012826003E082685A
:1026A00022F48012826070470146C86C80B2704785
:1026B00066484C300068704721B1426842F480623D
:1026C000426003E0426822F480624260704721B1B8
:1026D000426842F48052426003E0426822F4805231
:1026E000426070470A460021816821F4E0411143AD
:1026F0008160704721B1826842F40042826003E049
:10270000826822F400428260704721B1826842F4FC
:102710000212826003E0826822F402128260704733
:10272000014600208A6802F400120AB1012000E08C
:1027300000207047F0B50446154600200022002610
:10274000092911DDE068A1F10A0707EB470C07270B
:1027500007FA0CF29043A1F10A0707EB470703FAC7
:1027600007F21043E0600CE0206901EB410C072701
:1027700007FA0CF2904301EB410703FA07F210430A
:102780002061A06BC0F30156EF1C06F1010CA7EB12
:102790000C0707EB870C1F2707FA0CF29043EF1C7E
:1027A00006F1010CA7EB0C0707EB870701FA07F20C
:1027B0001043A063F0BD10B50A4600210023816BD1
:1027C00021F44011531E41EA0351816310BD08B545
:1027D000002300930090009B0B440093009B1A6021
:1027E00008BD08B5024600200090009201F12800C3
:1027F000009B184400900098006880B208BD0A460B
:1028000000214168164B19401143416070474162F5
:10281000826270470A460021416821F01F0111437E
:102820004160704740B109490831096841F400012D
:10283000064A0832116007E004490831096821F4AA
:102840000001024A08321160704700000024014074
:1028500000280140003C0140FFFEF0FFFDF7F1FFC2
:10286000FFFD3FFF0246002013680B400BB1012023
:1028700000E000207047CA430260704770B502460E
:102880000020002300240B125568CEB205EA06048E
:1028900015681D4015B10CB1012000E0002070BD8D
:1028A00000220A12D34303607047000010B50446AB
:1028B000FE48844208D10121C014FFF713FB002118
:1028C000E014FFF70FFBC4E0B4F1804F08D1012101
:1028D0000846FFF714FB00210120FFF710FBB8E0CA
:1028E000F348844208D101210220FFF708FB0021B0
:1028F0000220FFF704FBACE0EE48844208D101213E
:102900000420FFF7FCFA00210420FFF7F8FAA0E00A
:10291000E948844208D101210820FFF7F0FA00219C
:102920000820FFF7ECFA94E0E448844208D1012142
:102930001020FFF7E4FA00211020FFF7E0FA88E00A
:10294000DF48844208D101212020FFF7D8FA002176
:102950002020FFF7D4FA7CE0DA48844208D1012134
:102960004014FFF7BFFA00216014FFF7BBFA70E0D4
:10297000D548844209D10121C804FFF7B3FA0021E8
:102980004FF40020FFF7AEFA63E0D048844209D14B
:1029900001210805FFF7A6FA00214FF48010FFF788
:1029A000A1FA56E0CA48844209D101214805FFF73F
:1029B00099FA00214FF40010FFF794FA49E0C54856
:1029C000844208D101214020FFF799FA00214020DC
:1029D000FFF795FA3DE0C048844208D101218020EC
:1029E000FFF78DFA00218020FFF789FA31E0BB481C
:1029F000844208D101218015FFF781FA0021A0153A
:102A0000FFF77DFA25E0B648844209D10121080488
:102A1000FFF768FA00214FF48030FFF763FA18E0FF
:102A2000B048844209D101214804FFF75BFA002134
:102A30004FF40030FFF756FA0BE0AB48844208D160
:102A400001218804FFF74EFA00214FF48020FFF7A0
:102A500049FA10BD00220288944B98420ED0994B3F
:102A600098420BD0B0F1804F08D0914B984205D0DE
:102A7000904B984202D0904B984204D14FF68F73FE
:102A80001A404B881A438D4B984207D08C4B984282
:102A900004D04FF6FF431A40CB881A4302808B883C
:102AA00083850B880385814B98420BD0854B9842D8
:102AB00008D08B4B984205D08A4B984202D08A4B63
:102AC000984201D10B7A038601238382704770B547
:102AD000002400220023058C4FF6FE763540058445
:102AE000028C8388048B4FF68F752C40B51E2C40CA
:102AF0000D882C43751E2A400D892A434D882A4390
:102B00006A4DA8420BD06F4DA84208D0744DA84220
:102B100005D0744DA84202D0734DA84213D14FF690
:102B2000F7752A404D892A434FF6FB752A408D8858
:102B30002A434FF6FF652B404FF6FF552B408D89FA
:102B40002B43CD892B4383800483CD8885860284E3
:102B500070BD70B5002400220023058C4FF6EF767F
:102B600035400584028C8388048B48F6FF752C4021
:102B70004FF6FF452C400D884FF6FF7606EA0525F7
:102B80002C434FF6DF752A400D8906EA05152A43C6
:102B90004D8806EA05152A43444DA84202D0494D06
:102BA000A8421DD14FF67F752A404D894FF6FF761A
:102BB00006EA05152A434FF6BF752A408D8806EAB6
:102BC00005152A434FF6FF352B404FF2FF752B407A
:102BD0008D8906EA85052B43CD8906EA85052B43B9
:102BE00083800483CD880587028470BD70B500247E
:102BF00000220023058C4FF6FF6635400584028CC9
:102C00008388848B4FF68F752C404FF6FC752C40D3
:102C10000D882C434FF6FF552A400D894FF6FF765D
:102C200006EA05252A434D8806EA05252A431F4D55
:102C3000A84202D0234DA8421DD14FF2FF752A4071
:102C40004D894FF6FF7606EA05252A434FF6FF35F4
:102C50002A408D8806EA05252A434EF6FF752B404B
:102C60004DF6FF752B408D8906EA05152B43CD895E
:102C700006EA05152B4383808483CD8885870284EB
:102C800070BD70B5002200230024058C4EF6FF763F
:102C900035400584038C8488828B48F6FF752A4072
:102CA0004FF6FF452A400D8820E00000002C01402F
:102CB0000004004000080040000C004000100040EC
:102CC0000014004000340140004C0140005001401D
:102CD0000054014000180040001C0040002000404B
:102CE0000040014000440140004801404FF6FF769B
:102CF00006EA05252A434DF6FF752B400D8906EAA5
:102D000005352B434D8806EA05352B43FA4DA8427D
:102D100002D0FA4DA84208D14BF6FF752C408D89A0
:102D20004FF6FF7606EA85152C4384808283CD8892
:102D3000A0F84050038470BD828B4FF2FF331A40DD
:102D40008283828B4FF6FF7303EA01231A43828347
:102D50007047F0B50C461546002200210026078C6E
:102D60004EF6FF7C07EA0C070784828B018C4FF636
:102D7000FF7707EA043640F6FF473A404FF6FF7701
:102D800007EA05273A434FF6FF7707EA03373A4346
:102D9000D94FB8420ED0D94FB8420BD0B0F1804FC6
:102DA00008D0D74FB84205D0D64FB84202D0D64F40
:102DB000B84206D14DF6FF77394046F48057394383
:102DC00005E047F6FF57394044F480573943828382
:102DD0000184F0BD828B4FF6F3731A408283828B9D
:102DE0000A4382837047F0B50C4615460022002145
:102DF0000026078C4FF6FF6C07EA0C070784828BCE
:102E0000018C4FF6FF7707EA04264FF60C773A401D
:102E10004FF6FF7707EA03172F433A43B64FB842FE
:102E20000ED0B64FB8420BD0B0F1804F08D0B44F9F
:102E3000B84205D0B34FB84202D0B34FB84206D122
:102E40004FF6FF57394046F48077394305E04FF29B
:102E5000FF57394044F48077394382830184F0BDC1
:102E6000028B4FF2FF331A400283028B4FF6FF733F
:102E700003EA01231A4302837047F0B50C46154656
:102E8000002200210026078C4FF6EF7C07EA0C0792
:102E90000784028B018C4FF6FF7707EA041640F691
:102EA000FF473A404FF6FF7707EA03373A434FF6BA
:102EB000FF7707EA05273A438F4FB8420ED08F4F6E
:102EC000B8420BD0B0F1804F08D08D4FB84205D03A
:102ED0008C4FB84202D08C4FB84206D14FF6DF7704
:102EE000394046F01007394305E04FF65F77394027
:102EF00044F01007394302830184F0BD028B4FF682
:102F0000F3731A400283028B0A4302837047F0B5C1
:102F10000C46154600220021068C4FF6FE773E40F7
:102F20000684028B018C4FF60C7632407E1C06EA3A
:102F300003162E433243704EB0420ED06F4EB04255
:102F40000BD0B0F1804F08D06D4EB04205D06D4E21
:102F5000B04202D06C4EB04206D14FF6FD76314001
:102F600044F00106314305E04FF6F576314044F078
:102F70000106314302830184F0BD70B505460C465D
:102F80005D4885420ED05D4885420BD0B5F1804F3B
:102F900008D05B48854205D05A48854202D05A483D
:102FA000854200D100E000BF208850B92389A28863
:102FB00061882846FFF7ABFFE1882846FFF79EFFB0
:102FC00025E0208804280AD12389A2886188284620
:102FD000FFF753FFE1882846FFF742FF17E02088FC
:102FE00008280AD12389A28861882846FFF7FBFEBA
:102FF000E1882846FFF7EEFE09E02389A288618870
:103000002846FFF7A6FEE1882846FFF795FE70BD2B
:103010002DE9F04105460C4600260127608808B9D5
:10302000022600E00026A088012801D1022700E046
:1030300001272088A0B92389A28861882846FFF744
:1030400066FFE1882846FFF759FF23893A46314653
:103050002846FFF712FFE1882846FFF701FF13E03B
:103060002389A28861882846FFF707FFE188284660
:10307000FFF7F6FE23893A4631462846FFF747FF19
:10308000E1882846FFF73AFFBDE8F0810A884B88BF
:103090001A438B881A43CB881A430B891A434B89EE
:1030A0001A438B891A43A0F8442070474FF6FF71EA
:1030B000818000210180C180418001727047002120
:1030C000018041808180C180018141818181C181F4
:1030D0007047002101804180012181800021C18051
:1030E000018170470021018041808180C180018180
:1030F0004181818170470000002C01400034014073
:103100000004004000080040000C004021B102888B
:1031100042F00102028004E002884FF6FE731A407A
:103120000280704731B1B0F8442042F40042A0F868
:10313000442005E0B0F84420C2F30E02A0F8442079
:1031400070471AB183890B43838102E083898B43E3
:10315000838170478182704741EA0203A0F84830BA
:1031600070471AB183890B43838102E083898B43C3
:103170008381704701894FF6F872114001817047D1
:103180000A46002101894FF68F73194011430181CE
:10319000704730B504460D4629462046FFF7F0FF3C
:1031A000208940F00700208130BD2DE9F041044620
:1031B0000D4616461F46602D06D13B46012231467C
:1031C0002046FFF75AFE05E03B46012231462046E5
:1031D000FFF79DFE29462046FFF7D2FF208940F0E9
:1031E00007002081BDE8F08130B50C46002101893F
:1031F000C9B24FF6FF7505EA032515432543294358
:10320000018130BD2DE9F04105460E46174698462E
:10321000002443463A4631462846FFF7E5FF2C890D
:103220004FF6F870044044F007044FF68F700440E6
:1032300044F070042C81BDE8F081F0B504460D46E1
:1032400016461F463B46324629462046FFF7CCFF2E
:10325000208940F480402081F0BD01858282704742
:103260000A46002101884FF68F73194011430180EF
:103270007047F0B50C4615461E460021002200237B
:103280000189028B038C4FF6F877394021434FF6C2
:10329000FC473A4040F201173A434FF6DD773B4096
:1032A0004FF6FF7707EA06172F433B43018102835E
:1032B0000384F0BD0A460021018B4FF68F7319403D
:1032C0001143018370470A460021018B48F6FF73C2
:1032D00019404FF6FF7303EA022319430183704735
:1032E0000A460021818B4FF68F7319401143818369
:1032F00070470A460021818B48F6FF7319404FF64C
:10330000FF7303EA022319438183704721B10288C6
:1033100042F08002028004E002884FF67F731A4078
:103320000280704721B1828842F00402828004E06A
:1033300082884FF6FB731A408280704721B18288E1
:1033400042F00802828004E082884FF6F7731A4048
:103350008280704721B1828842F00102828004E0BD
:1033600082884FF6FE731A40828070470A46002119
:10337000018B4FF6F77319401143018370470A46DA
:103380000021018B4FF2FF7319404FF6FF7303EAE0
:1033900002231943018370470A460021818B4FF6AF
:1033A000F77319401143818370470A460021818BCE
:1033B0004FF2FF7319404FF6FF7303EA02231943DC
:1033C000818370470A460021018B4FF6FB73194039
:1033D0001143018370470A460021018B4FF6FF33EA
:1033E00019404FF6FF7303EA022319430183704724
:1033F0000A460021818B4FF6FB73194011438183EC
:1034000070470A460021818B4FF6FF3319404FF673
:10341000FF7303EA02231943818370470A460021A0
:10342000018B4FF67F7319401143018370470A46A1
:103430000021018BC1F30E014FF6FF7303EA022353
:103440001943018370470A460021818B4FF67F7331
:1034500019401143818370470A460021818BC1F3D3
:103460000E014FF6FF7303EA02231943818370476D
:103470000A460021018C4FF6FD7319401143018467
:1034800070470A460021018C4FF6F773194011432B
:10349000018470470A460021018C4FF6DF73194002
:1034A0004FF6FF7303EA02131943018470470A467B
:1034B0000021018C4FF67F7319404FF6FF7303EA2A
:1034C00002131943018470470A460021018C4FF60C
:1034D000FF5319404FF6FF7303EA02231943018497
:1034E00070470A460021018C4FF2FF7319404FF6D6
:1034F000FF7303EA02231943018470470A4600213F
:10350000018C4DF6FF7319404FF6FF7303EA023347
:1035100019430184704730B5002301248C40A3B2C5
:10352000048C9C430484048C02FA01F5ADB22C4354
:10353000048430BD30B5002304248C40A3B2048C35
:103540009C430484048C02FA01F5ADB22C4304843C
:1035500030BD70B503460020002418461830012500
:103560008D40ACB21D8CA5431D8409B1082909D139
:1035700000EB6100056825F07005056005681543DE
:1035800005600EE00D1FC5F34E052844056825F4BF
:10359000E045056005684FF6FF7606EA02263543EA
:1035A000056070BD21B1028842F00202028004E091
:1035B00002884FF6FD731A400280704721B10288DD
:1035C00042F00402028004E002884FF6FB731A40C6
:1035D0000280704721B1828842F08002828004E03C
:1035E00082884FF67F731A408280704702884FF6B8
:1035F000F7731A40028002880A430280704782886B
:103600004FF68F731A40828082880A438280704707
:1036100002894FF6F8731A40028102890A43028137
:10362000704702894FF67F731A40028102890A436C
:103630000281704781847047818570478186704719
:103640000187704781877047A0F840107047028853
:103650004FF6FF431A40028002880A4302807047F7
:103660000146888E70470146088F70470146888F53
:1036700070470146B1F8400070470146888C70479A
:103680000146088D704702460020138A0B400BB19B
:10369000012000E000207047CA430282704730B525
:1036A0000246002000230024158A05EA01039589BB
:1036B00005EA010413B10CB1012000E0002030BD87
:1036C000CA430282704770470FB4044910B503AA79
:1036D000029800F095F910BC5DF814FB180000206A
:1036E0000FB41CB5074B06AA7B44694600900598A9
:1036F00000F06DF90020694600F07CF91CBC5DF813
:1037000014FB00000903000070B5044685690068D9
:10371000C10601D5302600E02026C00707D070BDC5
:10372000D4E9012130469047206A401C20626D1E7A
:10373000F6D570BD70B5044685690078C00707D11D
:1037400070BDD4E9012120209047206A401C2062EE
:103750006D1EF6D570BD00002DE9F041064600242F
:1037600010687529314616A510D0AFF300800028E7
:1037700002DA404213A507E031688A0701D512A595
:1037800002E0490704D511A5012401E0AFF3008050
:1037900000210A2206F1240709E0B0FBF2FCB0FB8D
:1037A000F2F302FB1C00303078541846491C002804
:1037B000F3D123462A463046BDE8F04100F0A8B8D0
:1037C000000000002D0000002B0000002000000081
:1037D0002DE9F05F894604464FF0000ADFF824B176
:1037E000FB44C0F820A02046E168884700287DD02F
:1037F000252806D0D4E901219047206A401C206288
:10380000F1E700255F462046E16888472028064604
:1038100007DB312E05D2B81910F8200C08B105438A
:10382000F1E7A80701D525F00405C4F81CA000277E
:10383000C4F818A02A2E09D0304600F029F938B370
:1038400004EB8708303EC8F8186019E059F8041BEB
:10385000204604EB87029161E1688847012F064604
:1038600018D1E069002820DA25F020051DE0D8F8FD
:10387000180000EB800006EB40003038C8F8180054
:103880002046E1688847064600F002F90028EED19C
:10389000012F0AD02E2E08D12046E16888477F1CD0
:1038A0000646022F45F02005C4DBA069002803DA94
:1038B000404245F00105A061E80701D025F0100560
:1038C000A6B1A6F14100192802D8203645F40065BA
:1038D0004A463146204625604D46FCF783FC60B1E0
:1038E000012807D0ED1D25F0070000E007E000F1FA
:1038F000080978E705F1040975E730467AE7206A98
:10390000BDE8F09F7A1A0000704770477047704713
:103910002DE9F0470D4699469246044600F12408E9
:103920000168880604D5E06921F01001216000E0FB
:103930000120A84201DD471B00E00027A1697A1998
:1039400002EB0900081AA0612078C00602D42046C4
:10395000FFF7DAFE002608E0D4E901211AF8060094
:103960009047206A401C761C20624E45F4DB20788C
:10397000C0060AD52046FFF7C7FE06E0D4E90121BC
:1039800030209047206A401C2062381EA7F10107B2
:10399000F4DC07E0D4E9012118F805009047206A1B
:1039A000401C2062281EA5F10105F3DC2046FFF72C
:1039B000C1FE2078000602D50220BDE8F087012074
:1039C000FBE7000001694A1C02610878704700B5F6
:1039D0008FB0CDE901310021059105497944CDE948
:1039E000031011466846FFF7F3FE0FB000BD00005C
:1039F000E5FFFFFF0A6802F8010B0A60704700004C
:103A0000074B70B50D467B44FFF7E1FF044628469F
:103A100000F008F810B14FF0FF3070BD204670BDC7
:103A200011C8FFFF007B00F080007047754600F072
:103A30002BF8AE4605006946534620F00700854640
:103A400018B020B5FDF706FFBDE820404FF0000696
:103A50004FF000074FF000084FF0000B21F0070176
:103A6000AC46ACE8C009ACE8C009ACE8C009ACE8B9
:103A7000C0098D46704710B50446AFF3008020465C
:103A8000BDE81040FCF7C0BB00487047AC1C0020EC
:103A900030380A2801D2012070470020704700000A
:103AA00000000000000000000000000000003F4097
:103AB0000000000000000000300040003000400026
:103AC000000009000BC03D000BC03D00090018C0FC
:103AD00024407FE0224031800000180024C01B00F9
:103AE0000D803240018003801C4027401C8007402D
:103AF0000040100060000000000000000000000016
:103B0000000000001F802040402000004020204096
:103B10001F8000000000090006001F800600090049
:103B20000000040004003F800400040000000010B6
:103B30000060000000000000000004000400040019
:103B4000040004000000000000400000000000002D
:103B50000000002001C006003800400000001F8067
:103B60002040204020401F800000000010403FC047
:103B700000400000000018C02140224024401840AE
:103B8000000010802040244024401B8000000200E0
:103B90000D0011003FC0014000003C802440244043
:103BA0002440238000001F802440244034400380B0
:103BB00000003000200027C03800200000001B80DB
:103BC0002440244024401B8000001C0022C02240CE
:103BD00022401F800000000000000840000000009C
:103BE0000000000000000460000000000000000071
:103BF00004000A001100208040400900090009006B
:103C000009000900000000004040208011000A0067
:103C100004001800200023402400180000001F802A
:103C20002040274029401F400000004007C03900C5
:103C30000F0001C0004020403FC0244024401B80B2
:103C400000001F80204020402040308000002040A5
:103C50003FC0204020401F80000020403FC0244043
:103C60002E4030C0000020403FC024402E003000D5
:103C700000000F00108020402240338002002040CE
:103C80003FC0040004003FC02040204020403FC00F
:103C90002040204000000060202020203FC0200065
:103CA000200020403FC024400B0030C02040204076
:103CB0003FC020400040004000C03FC03C0003C067
:103CC0003C003FC0000020403FC00C4023003FC0EC
:103CD00020001F802040204020401F800000204006
:103CE0003FC024402400180000001F8021402140D4
:103CF00020E01FA0000020403FC02440260019C043
:103D0000004018C024402440224031800000300090
:103D100020403FC020403000000020003F80004095
:103D200000403F80200020003E0001C00700380016
:103D30002000380007C03C0007C0380000002040C9
:103D400039C0060039C0204000002000384007C0BC
:103D5000384020000000304021C02640384020C0BC
:103D60000000000000007FE0402040200000000034
:103D700070000C0003800040000000004020402044
:103D80007FE0000000000000200040002000000054
:103D900000000010001000100010001000100000C3
:103DA000000040000000000000000000028005400C
:103DB000054003C0004020003FC004400440038091
:103DC00000000000038004400440064000000000A2
:103DD0000380044024403FC00040000003800540B1
:103DE000054003400000000004401FC02440244060
:103DF0002000000002E0055005500650042020403D
:103E00003FC00440040003C000400000044027C03D
:103E100000400000000000100010041027E0000027
:103E2000000020403FC00140070004C00440204083
:103E300020403FC000400040000007C0040007C011
:103E4000040003C00000044007C00440040003C095
:103E50000040000003800440044003800000041080
:103E600007F0045004400380000000000380044079
:103E7000045007F00010044007C002400400040092
:103E80000000000006400540054004C0000000009E
:103E900004001F8004400040000004000780004030
:103EA000044007C000400400070004C00180060071
:103EB0000400060001C0070001C006000000044025
:103EC00006C0010006C0044000000410071004E012
:103ED0000180060004000000044005C006400440C4
:103EE00000000000000004007BE040200000000013
:103EF00000000000FFF000000000000040207BE018
:103F0000040000000000400080004000200020006D
:103F10004000000000000000000000000000000061
:103F200000000000000000001FCC000C000000009A
:103F30000000000008003000600008003000600051
:103F40000000022003FC1E20022003FC1E20022091
:103F5000000000000E1811043FFF10840C780000D0
:103F600000000F0010840F3800C007781884007814
:103F7000000000780F8410C411240E9800E400841F
:103F80000008080068007000000000000000000049
:103F9000000000000000000007E0181820044002A4
:103FA0000000000040022004181807E00000000094
:103FB00000000240024001800FF0018002400240F8
:103FC00000000080008000800FF8008000800080EA
:103FD00000000001000D000E0000000000000000C5
:103FE00000000000008000800080008000800080D1
:103FF00000800000000C000C000000000000000029
:104000000000000000060018006001800600180093
:104010002000000007F0080810041004080807F04A
:1040200000000000080408041FFC00040004000055
:10403000000000000E0C10141024104411840E0C0B
:10404000000000000C1810041104110412880C70F8
:104050000000000000E00320042408241FFC0024CA
:10406000000000001F9810841104110410881070C3
:104070000000000007F0088811041104188800707F
:10408000000000001C00100010FC13001C001000B9
:10409000000000000E3811441084108411440E38C2
:1040A000000000000700088C10441044088807F046
:1040B0000000000000000000030C030C00000000E2
:1040C00000000000000000010106000000000000E8
:1040D00000000000008001400220041008081004C5
:1040E00000000220022002200220022002200220E2
:1040F00000000000100408080410022001400080A5
:10410000000000000E001200100C106C10800F0058
:10411000000003E00C1813E4142417C4082807D087
:1041200000000004003C03C41C40074000E4001CE5
:10413000000410041FFC1104110411040E88007007
:10414000000003E00C1810041004100410081C10E8
:10415000000010041FFC100410041004080807F0ED
:10416000000010041FFC1104110417C410040818E7
:10417000000010041FFC1104110017C010000800FB
:10418000000003E00C181004100410441C780040D8
:10419000000010041FFC10840080008010841FFCAD
:1041A00010040000100410041FFC10041004000090
:1041B000000000030001100110011FFE100010009C
:1041C000000010041FFC110403801464181C100468
:1041D000000010041FFC1004000400040004000C84
:1041E000000010041FFC1F0000FC1F001FFC100437
:1041F000000010041FFC0C04030000E010181FFC5A
:10420000100007F00808100410041004080807F054
:10421000000010041FFC10841080108010800F001C
:10422000000007F0081810241024101C080A07F2D8
:10423000000010041FFC1104110011C011300E0CFD
:10424000000400000E1C11041084108410441C385B
:1042500000001800100010041FFC100410001800CB
:10426000000010001FF810040004000410041FF8E0
:10427000100010001E0011E0001C007013801C00D4
:1042800010001FC0103C00E01F0000E0103C1FC0E9
:1042900000001004180C163401C001C01634180CAC
:1042A000100410001C00130400FC13041C00100078
:1042B00000000804101C1064108413041C0410185F
:1042C00000000000000000007FFE400240024002AB
:1042D0000000000030000C0003800060001C0003A0
:1042E000000000004002400240027FFE000000008B
:1042F00000000000000020004000400040002000BE
:1043000000000001000100010001000100010001A6
:1043100000010000400040002000000000000000FC
:10432000000000000098012401440144014400FC05
:10433000000410001FFC00880104010400880070C4
:1043400000000000007000880104010401040088DE
:1043500000000000007000880104010411081FFC27
:104360000004000000F8014401440144014400C875
:1043700000000000010401040FFC110411041100ED
:104380001800000000D601290129012901C90106F0
:10439000000010041FFC008401000100010400FC67
:1043A000000400000104190419FC000400040000CA
:1043B00000000000000300010101190119FE0000C6
:1043C000000010041FFC0024004001B4010C010493
:1043D00000000000100410041FFC00040004000092
:1043E0000000010401FC0104010001FC01040100C2
:1043F00000FC010401FC008401000100010400FC38
:104400000004000000F8010401040104010400F8A4
:104410000000010101FF0085010401040088007013
:10442000000000000070008801040104010501FF84
:1044300000010104010401FC008401040100018069
:104440000000000000CC0124012401240124019873
:10445000000000000100010007F801040104000051
:104460000000010001F8000400040004010801FC40
:104470000004010001800170000C00100160018047
:10448000010001F0010C003001C00030010C01F00E
:10449000010000000104018C00740170018C010412
:1044A0000000010101810171000E0018016001800E
:1044B000010000000184010C013401440184010C5D
:1044C0000000000000000000000001003EFC40026F
:1044D00040020000000000000000FFFF000000009C
:1044E00000000000400240023EFC0100000000000D
:1044F00000000000600080008000400040002000BC
:10450000200000000000000000000000000000008B
:10451000000000000000000000000000000000009B
:10452000000000000000000000000000000000008B
:1045300000000000000F80380FFE380F80380000A8
:10454000000000000000000000000000000000006B
:104550000100000600000C000038000031000006D9
:1045600000000C00003800003000000000000000D7
:10457000000061800067F807F980006180006180B9
:104580000061800061800067F807F98000618000A9
:10459000000000000000000001C0E003E0F0063071
:1045A000080418081FFFFE040E080787F00381E0C7
:1045B00000000000000001F000060C0004040806E2
:1045C0000C7001F9C0000E00003BE000EC18070879
:1045D00008040C180003E00000000001E00007F0F0
:1045E00003F818041C0804170807E1D003C0E00012
:1045F00023B0003C0800200800001000000000006C
:10460000000100003100003200001C00000000002A
:10461000000000000000000000000000000000009A
:10462000000000000000000000000000000000008A
:1046300000007F0001FFC00780F00C00181000048C
:104640002000020000000000002000021000040C06
:1046500000180780F001FFC0007F0000000000008C
:104660000000000000000000000000000000420008
:10467000006600006600003C0000180003FFC00058
:104680001800003C000066000066000042000000C8
:1046900000000800000800000800000800000800F2
:1046A00001FFC0000800000800000800000800002A
:1046B000080000000000000100003100003200008E
:1046C0001C000000000000000000000000000000CE
:1046D00000000000000000000000080000080000CA
:1046E000080000080000080000080000080000089A
:1046F00000000800000800000000000000000000AA
:104700000000380000380000380000000000000001
:104710000000000000000000000000000000000099
:104720000000000600001C000070000180000E0068
:1047300000380000C0000700001C0000300000002E
:104740000000000000007F8001FFE0038070060091
:104750001804000804000806001803807001FFE038
:10476000007F800000000000000000000100080140
:10477000000801000803FFF807FFF8000008000028
:104780000800000800000000000000000001C03820
:1047900002C0580400980401180402180404180602
:1047A0001C1803F81801E0F80000000000000000E9
:1047B0000001C0E003C0F004000804080804080871
:1047C00006180803F41801E7F00001E000000000FB
:1047D0000000000000000300000D00001100006157
:1047E0000000810803010807FFF80FFFF800010827
:1047F0000001080000000000000000E007FCD006F7
:104800000808061008061008061008061838060FD3
:10481000F00607C0000000000000000000003F801C
:1048200001FFE00384300208180410080410080493
:104830001008071810030FF00007C0000000000068
:104840000000000003C0000700000600000600F89A
:104850000607F806180006E0000700000600000042
:10486000000000000001E1E003F7F0063410041836
:1048700008041808040C08040C0806161803F3F0C2
:1048800001C1E000000000000000F80003FC30035C
:10489000063804020804020804020804041003088D
:1048A000F001FFC0007F00000000000000000000D9
:1048B00000000000000000000000703800703800A8
:1048C0007038000000000000000000000000000040
:1048D0000000000000000000000000000000301A8E
:1048E00000301C000000000000000000000000007C
:1048F000000000000000000000080000140000227A
:1049000000004100008080010040020020040010EF
:104910000800080000000000000021000021000045
:1049200021000021000021000021000021000021C1
:104930000000210000210000000000000000000035
:1049400008000804001002002001004000808000E0
:1049500041000022000014000008000000000000D8
:104960000003C00004C000040000080038080F382D
:104970000808380810000C300007E00003C00000F1
:104980000000000000003F8000FFE0038070020F85
:104990001006708804C088048308047F8802C090D1
:1049A00003012000FE400000080000180001F8008C
:1049B0003E0801C20007020007E20000FE00001FDF
:1049C000C80001F800003800000804000807FFF8DC
:1049D00007FFF80408080408080408080408080683
:1049E000180803F41801E7F00001E00000000000DF
:1049F00000003F8001FFE0038070020018040008FF
:104A00000400080400080400100600200780C0000D
:104A1000000004000807FFF807FFF804000804007E
:104A20000804000804001802001003807001FFE071
:104A3000007F8000000004000807FFF807FFF8046B
:104A40000808040808040808040808043E080400CC
:104A50000806001801006000000004000807FFF8C5
:104A600007FFF8040808040800040800040800040C
:104A70003E0006000006000001800000000000006B
:104A800000003F8001FFE00380700600180400086A
:104A90000402080402080203F00783F00002000089
:104AA000020004000807FFF807FFF80408080008E0
:104AB0000000080000080000080004080807FFF8CC
:104AC00007FFF804000800000000000004000804CC
:104AD000000804000807FFF807FFF80400080400B6
:104AE00008040008000000000000000000000006AC
:104AF0000000070000010400010400010400030796
:104B0000FFFE07FFFC040000040000040000040096
:104B10000807FFF807FFF8040C08001800003E0023
:104B200004C7800503C80600F80400380400180014
:104B3000000804000807FFF807FFF8040008000059
:104B40000800000800000800000800000800001825
:104B500000006000000004000807FFF80780080755
:104B6000FC00007FC00003F80007C0007800078049
:104B70000807FFF807FFF804000804000807FFF81B
:104B800007000803C00000E000003800001E00001D
:104B900007000001C00400F007FFF8040000000057
:104BA00000007F8001FFE003807006001804000809
:104BB00004000806001803003001FFE0007F8000B9
:104BC000000004000807FFF807FFF80404080404C5
:104BD00000040400040400040400060C0003F800B0
:104BE00001F000000000000000007F8001FFE003F2
:104BF00080700600880400880400C806003C03009A
:104C00003E01FFE6007F8400000004000807FFF873
:104C100007FFF8040808040800040C00040F00044F
:104C20000BC00610F003F03801E008000008000097
:104C30000001E0F803F030063010041808041808EA
:104C4000040C08040C080206180207F00781E000B3
:104C500000000180000600000400000400000400C1
:104C60000807FFF807FFF80400080400000400002C
:104C700006000001800004000007FFE007FFF004C9
:104C800000180000080000080000080000080000EC
:104C90000804001007FFE004000004000006000004
:104CA00007E00007FE00041FE00001F800003800E4
:104CB00001E0043E0007C0000600000400000400FC
:104CC0000007E00007FFC0041FF80007C007F80056
:104CD00007FF80043FF80007C004F8000700000445
:104CE000000000000004000806001807C07805F165
:104CF000C8003E00001F800463E80780F806001823
:104D000004000800000004000006000007800007FF
:104D1000E008047C08001FF80007F800180804E009
:104D20000807000006000004000000000001000861
:104D30000600380400F80403E8040F08047C0805A2
:104D4000F00807C008070018040060000000000019
:104D5000000000000000000000000000003FFFFE17
:104D60002000022000022000022000022000020099
:104D7000000000000000000008000007000000C064
:104D8000000038000006000001C000003000000EE6
:104D900000000100000000000000000020000220D0
:104DA00000022000022000022000023FFFFE00005F
:104DB00000000000000000000000000000000000F3
:104DC000000000080000100000300000200000304B
:104DD00000001000000800000000000000000000BB
:104DE00001000001000001000001000001000001BD
:104DF00000000100000100000100000100000100AE
:104E00000001000000000000000000200000200061
:104E10000010000010000000000000000000000072
:104E20000000000000000000000000F00019F80081
:104E30001B18002208002608002408002410003F48
:104E4000F8001FF80000080000180000000400002F
:104E500007FFF80FFFF000181800100800200800E6
:104E60002008003018001FF0000FC00000000000F4
:104E7000000007C0001FF0001830002008002008C4
:104E8000002008003C08001C10000060000000002A
:104E900000000000000007C0001FF00038180020CC
:104EA0000800200800200804101007FFF80FFFF08A
:104EB0000000100000000000000000000007C0001B
:104EC0001FF00012300022180022080022080032D1
:104ED00008001E10000E200000000000000020004E
:104EE00000200800200801FFF803FFF8062008044E
:104EF0002008042008072000030000000000000034
:104F00000000000E000E6E001FF30031B10020B152
:104F10000020B1003191001F13002E1E00200E0052
:104F2000300000000004000807FFF80FFFF8001031
:104F300008002000002000002008003FF8001FF8B3
:104F40000000080000000000000000000020080031
:104F50002008002008063FF8063FF800000800007F
:104F60000800000800000000000000000000000031
:104F700000000300000300200100200100200306C0
:104F80003FFE063FFC0000000000000000000000A3
:104F90000004000807FFF80FFFF800018800030075
:104FA000002FC00038F8002038002008000008005A
:104FB00000000000000000000400080400080400D5
:104FC0000807FFF80FFFF8000008000008000008BD
:104FD000000000000000002008003FF8003FF8003B
:104FE0001008002000003FF8003FF80010080020E3
:104FF00000003FF8003FF800000800000000200813
:10500000003FF8003FF800100800100000200000EA
:105010002008003FF8001FF8000008000000000012
:10502000000007C0000FF000183000300800200812
:10503000002008003008001830000FF00007C00002
:105040000000000000002001003FFF003FFF0010B3
:1050500011002009002008002008003038001FF04F
:10506000000FC00000000000000007C0001FF0009B
:105070003818002008002008002009001011001F27
:10508000FF003FFF00000100000000200800200892
:10509000002008003FF8003FF80008080010080052
:1050A0002008002000003000003000000000000058
:1050B00000000000000C78001E18003308002308D0
:1050C0000021080021880021980030F0003860009D
:1050D000000000000000200000200000200000FF71
:1050E000F003FFF80020080020080020080000302E
:1050F000000000000000000000002000003FF00061
:105100007FF8000018000008000008002010003F91
:10511000F8007FF0000010000000000000002000F8
:10512000003000003C00003F800023F000007800C9
:105130000070002380003C000030000020000020B0
:1051400000003C00003FE00023F80000E0002700E2
:10515000003E00003FE00021F80001E0003E0000BA
:105160002000000000002008002008003838003E21
:10517000680027800003C8002CF800383800201889
:1051800000200800000000000000200000300300A4
:105190003C01003F830023EC000070002380003CB2
:1051A00000002000002000000000000000000000BF
:1051B0000038080020380020F80023E8002F88007D
:1051C0003E080038080020180000700000000000B1
:1051D00000000000000000000000000000000800C7
:1051E0000014001FF7FC3000062000020000000041
:1051F00000000000000000000000000000000000AF
:1052000000000000FFFFFF000000000000000000A1
:10521000000000000000000000000000200002303C
:1052200000061FF7FC00140000080000000000004A
:105230000000000000000000000000000018000056
:105240006000004000004000002000001000000846
:1052500000000400000400000C0000100000040026
:105260000008000000000000000200010000100023
:105270009052000800000020541700006C01000844
:10528000A456000854170020BC0B0000C8010008F9
:1052900018081E0F280F230F2D062B1E140CC328D1
:1052A0000FF50A2D161784A24A04100F01020304F9
:1052B000060708092030AC6320181D040404FC0410
:1052C00021180822672212121240012A7F0529198B
:1052D0002809049F44249424449F0B1110100202B7
:1052E00021130A42827F02020A132102024A10019C
:1052F0005AFF08414BFF410142FF100A1090FF90F6
:105300001024C404FC2A902611140601FF26211043
:105310000C031C2443807F091E80151060028C182A
:105320000904F454545F5454F420280F04047E01FB
:1053300010905F35151515355F90707AF08052F03A
:105340002A0FA82AFF05420F1808FE021292929215
:10535000F2042C1202FE9E1B4048012F4F484A4C7B
:105360004840A22CFE9292031117424AD26A46C0CC
:10537000100940C444443F2424241A409E22018D35
:105380008040301EE0212C404042013A7F0619A0A7
:10539000401040445464457E4444447E4564544433
:1053A000404BFF4901295E1940180820180F0808D2
:1053B000E808011B2818F03C1008065C21150204BF
:1053C0000830162030AC63301A809F198513808016
:1053D000162267221212100A221448847F0408142D
:1053E000223977197E1EF0101116D0812950200C19
:1053F000064120103F444241404078799D290619DA
:10540000552E8242320F02012AFF0519D7164A7E15
:105410002A2A221F7C565554547C2F3E110909FD1F
:105420004BA01BF901E01116F808FF08F818083E18
:10543000AA6A3E2AAA3EA0280F63211F11394829D3
:10544000098DFB09082C58E02E54D454745F0629AA
:10545000E04E04040201FEAE25010204041A04FC1D
:105460001C44FC22013323023A04013B7F820132B7
:10547000F2254020100C1ABF1A2408106040108238
:1054800082424222120A070A122242428282700A91
:10549000F8888C8A89888888F82AFF52190142FF87
:1054A0002B100C0B3B45C61213140C3809804020FE
:1054B0001E2040407F10334040140C30C0130106C2
:1054C0004480700E180B8080404020110A040A119D
:1054D00026138080251060028C59B239A018087EEE
:1054E00001407E42427E024C427E4020491F79208C
:1054F0001D4448507F631B5048F0212809FC242498
:1055000024FC252624081204280E40308F80844C69
:1055100055252525554C8060180C10D0FF90502043
:10552000504C434C50721113040312FF18094144AC
:1055300058414E6058471049601502F202FE1AF8B1
:105540001A3960178047300F10274447807F400C7E
:1055500022322AA6A2622111098101200E422213C1
:105560000B42827E02020A122346162030AC6330C0
:10557000100A88C8A8998E88A8C888200A2267229D
:1055800012128040300F153F40407118094040C052
:105590005F5555D555011B5F4070180E20603F25A3
:1055A0001515FF904729112D43A01A04012808F46E
:1055B0009495969494F40B212EFE02027A4A012CC3
:1055C0007A0282F1158060F807100AFC848484FE58
:1055D00082838280198419A614FF402046418E30B0
:1055E00040F81AC0E829014BFC84080336C0C01BF0
:1055F000FF7FA119014AFF07043E40FF7F034A7F56
:10560000703AFCEA016F6CFFFE02018BFFFF0B0298
:1056100068036C1F1F04017BFFFF0B02741F038CC8
:105620007F3F07FFF8F8F0F0702001E60214801ABF
:10563000FF0109122C09132D01FF01C0EDFFFFFE30
:1056400006011AFF01F915391603FF070201D10CF3
:1056500012FFFFFF1409101509151601FF01C1ED16
:10566000FFFFFF18011914091015391601FF01D2A7
:1056700004120201011AFF01011209122A01FF019D
:10568000D71AFF0101FF01FD05FF1F1F0F0F01E8E2
:105690002D0102030404000900060708090204069C
:0456A00008000000FE
:0400000508000131BD
:00000001FF
